{
  "_format": "hh-sol-artifact-1",
  "contractName": "RollupCreator",
  "sourceName": "contracts/rollup/RollupCreator.sol",
  "abi": [
    {
      "inputs": [],
      "stateMutability": "nonpayable",
      "type": "constructor"
    },
    {
      "anonymous": false,
      "inputs": [
        {
          "indexed": true,
          "internalType": "address",
          "name": "previousOwner",
          "type": "address"
        },
        {
          "indexed": true,
          "internalType": "address",
          "name": "newOwner",
          "type": "address"
        }
      ],
      "name": "OwnershipTransferred",
      "type": "event"
    },
    {
      "anonymous": false,
      "inputs": [
        {
          "indexed": true,
          "internalType": "address",
          "name": "rollupAddress",
          "type": "address"
        },
        {
          "indexed": false,
          "internalType": "address",
          "name": "inboxAddress",
          "type": "address"
        },
        {
          "indexed": false,
          "internalType": "address",
          "name": "adminProxy",
          "type": "address"
        },
        {
          "indexed": false,
          "internalType": "address",
          "name": "sequencerInbox",
          "type": "address"
        },
        {
          "indexed": false,
          "internalType": "address",
          "name": "bridge",
          "type": "address"
        }
      ],
      "name": "RollupCreated",
      "type": "event"
    },
    {
      "anonymous": false,
      "inputs": [],
      "name": "TemplatesUpdated",
      "type": "event"
    },
    {
      "inputs": [],
      "name": "bridgeCreator",
      "outputs": [
        {
          "internalType": "contract BridgeCreator",
          "name": "",
          "type": "address"
        }
      ],
      "stateMutability": "view",
      "type": "function"
    },
    {
      "inputs": [],
      "name": "challengeManagerTemplate",
      "outputs": [
        {
          "internalType": "contract IChallengeManager",
          "name": "",
          "type": "address"
        }
      ],
      "stateMutability": "view",
      "type": "function"
    },
    {
      "inputs": [
        {
          "components": [
            {
              "internalType": "uint64",
              "name": "confirmPeriodBlocks",
              "type": "uint64"
            },
            {
              "internalType": "uint64",
              "name": "extraChallengeTimeBlocks",
              "type": "uint64"
            },
            {
              "internalType": "address",
              "name": "stakeToken",
              "type": "address"
            },
            {
              "internalType": "uint256",
              "name": "baseStake",
              "type": "uint256"
            },
            {
              "internalType": "bytes32",
              "name": "wasmModuleRoot",
              "type": "bytes32"
            },
            {
              "internalType": "address",
              "name": "owner",
              "type": "address"
            },
            {
              "internalType": "address",
              "name": "loserStakeEscrow",
              "type": "address"
            },
            {
              "internalType": "uint256",
              "name": "chainId",
              "type": "uint256"
            },
            {
              "internalType": "uint64",
              "name": "genesisBlockNum",
              "type": "uint64"
            },
            {
              "components": [
                {
                  "internalType": "uint256",
                  "name": "delayBlocks",
                  "type": "uint256"
                },
                {
                  "internalType": "uint256",
                  "name": "futureBlocks",
                  "type": "uint256"
                },
                {
                  "internalType": "uint256",
                  "name": "delaySeconds",
                  "type": "uint256"
                },
                {
                  "internalType": "uint256",
                  "name": "futureSeconds",
                  "type": "uint256"
                }
              ],
              "internalType": "struct ISequencerInbox.MaxTimeVariation",
              "name": "sequencerInboxMaxTimeVariation",
              "type": "tuple"
            }
          ],
          "internalType": "struct Config",
          "name": "config",
          "type": "tuple"
        }
      ],
      "name": "createRollup",
      "outputs": [
        {
          "internalType": "address",
          "name": "",
          "type": "address"
        }
      ],
      "stateMutability": "nonpayable",
      "type": "function"
    },
    {
      "inputs": [],
      "name": "deployedRollups",
      "outputs": [
        {
          "internalType": "uint256",
          "name": "",
          "type": "uint256"
        }
      ],
      "stateMutability": "view",
      "type": "function"
    },
    {
      "inputs": [],
      "name": "osp",
      "outputs": [
        {
          "internalType": "contract IOneStepProofEntry",
          "name": "",
          "type": "address"
        }
      ],
      "stateMutability": "view",
      "type": "function"
    },
    {
      "inputs": [],
      "name": "owner",
      "outputs": [
        {
          "internalType": "address",
          "name": "",
          "type": "address"
        }
      ],
      "stateMutability": "view",
      "type": "function"
    },
    {
      "inputs": [],
      "name": "renounceOwnership",
      "outputs": [],
      "stateMutability": "nonpayable",
      "type": "function"
    },
    {
      "inputs": [],
      "name": "rollupAdminLogic",
      "outputs": [
        {
          "internalType": "contract IRollupAdmin",
          "name": "",
          "type": "address"
        }
      ],
      "stateMutability": "view",
      "type": "function"
    },
    {
      "inputs": [],
      "name": "rollupUserLogic",
      "outputs": [
        {
          "internalType": "contract IRollupUser",
          "name": "",
          "type": "address"
        }
      ],
      "stateMutability": "view",
      "type": "function"
    },
    {
      "inputs": [
        {
          "internalType": "contract BridgeCreator",
          "name": "_bridgeCreator",
          "type": "address"
        },
        {
          "internalType": "contract IOneStepProofEntry",
          "name": "_osp",
          "type": "address"
        },
        {
          "internalType": "contract IChallengeManager",
          "name": "_challengeManagerLogic",
          "type": "address"
        },
        {
          "internalType": "contract IRollupAdmin",
          "name": "_rollupAdminLogic",
          "type": "address"
        },
        {
          "internalType": "contract IRollupUser",
          "name": "_rollupUserLogic",
          "type": "address"
        },
        {
          "internalType": "address",
          "name": "_validatorUtils",
          "type": "address"
        },
        {
          "internalType": "address",
          "name": "_validatorWalletCreator",
          "type": "address"
        }
      ],
      "name": "setTemplates",
      "outputs": [],
      "stateMutability": "nonpayable",
      "type": "function"
    },
    {
      "inputs": [
        {
          "internalType": "address",
          "name": "newOwner",
          "type": "address"
        }
      ],
      "name": "transferOwnership",
      "outputs": [],
      "stateMutability": "nonpayable",
      "type": "function"
    },
    {
      "inputs": [],
      "name": "validatorUtils",
      "outputs": [
        {
          "internalType": "address",
          "name": "",
          "type": "address"
        }
      ],
      "stateMutability": "view",
      "type": "function"
    },
    {
      "inputs": [],
      "name": "validatorWalletCreator",
      "outputs": [
        {
          "internalType": "address",
          "name": "",
          "type": "address"
        }
      ],
      "stateMutability": "view",
      "type": "function"
    }
  ],
  "bytecode": "0x608060405234801561001057600080fd5b5061001a3361001f565b61006f565b600080546001600160a01b038381166001600160a01b0319831681178455604051919092169283917f8be0079c531659141344cd1fd0a4f28419497f9722a3daafe3b4186f6b6457e09190a35050565b6132038061007e6000396000f3fe60806040523480156200001157600080fd5b5060043610620000cf5760003560e01c80639d4798e311620000865780639d4798e314620001675780639dba3241146200017b578063bc45e0ae146200018f578063e8a1a09f14620001a3578063f26a62c614620001ba578063f2fde38b14620001ce578063f860cefa14620001e557600080fd5b8063014cc92c14620000d45780635508d9d41462000105578063715018a6146200011c5780638da5cb5b14620001285780639905f02f146200013a5780639c683d101462000153575b600080fd5b600654620000e8906001600160a01b031681565b6040516001600160a01b0390911681526020015b60405180910390f35b620000e86200011636600462000a01565b620001f9565b62000126620006ad565b005b6000546001600160a01b0316620000e8565b6200014460085481565b604051908152602001620000fc565b600354620000e8906001600160a01b031681565b600554620000e8906001600160a01b031681565b600454620000e8906001600160a01b031681565b600754620000e8906001600160a01b031681565b62000126620001b436600462000ac6565b620006c5565b600254620000e8906001600160a01b031681565b62000126620001df36600462000b6b565b6200076f565b600154620000e8906001600160a01b031681565b6040805161010081018252600080825260208201819052918101829052606081018290526080810182905260a0810182905260c0810182905260e081018290526040516200024790620008da565b604051809103906000f08015801562000264573d6000803e3d6000fd5b506001600160a01b0316815260088054906000620002828362000b8b565b9091555060e08201819052604051600091620002c791620002a660208201620008e8565b6020820181038252601f19601f8201166040525080519060200120620007ee565b60015483516101208701516040516301b1b91f60e61b81529394506001600160a01b0390921692636c6e47c09262000306929186919060040162000bb5565b60a060405180830381600087803b1580156200032157600080fd5b505af115801562000336573d6000803e3d6000fd5b505050506040513d601f19601f820116820180604052508101906200035c919062000c04565b6001600160a01b0390811660a088810191909152918116608088015291821660608701529181166040808701919091529281166020860152845191870151925163f2fde38b60e01b81529281166004840152169063f2fde38b90602401600060405180830381600087803b158015620003d457600080fd5b505af1158015620003e9573d6000803e3d6000fd5b50506003548451604051600094506001600160a01b039092169250906200041090620008f6565b6001600160a01b03928316815291166020820152606060408201819052600090820152608001604051809103906000f08015801562000453573d6000803e3d6000fd5b5060408085015160208601516002549251637c643b2f60e11b81529394506001600160a01b038086169463f8c8765e946200049a9489949093909291169060040162000c84565b600060405180830381600087803b158015620004b557600080fd5b505af1158015620004ca573d6000803e3d6000fd5b505050508260e00151604051620004e190620008e8565b8190604051809103906000f590508015801562000502573d6000803e3d6000fd5b506001600160a01b0390811660c08501819052908316146200055f5760405162461bcd60e51b81526020600482015260116024820152702ba927a723afa927a6262aa82fa0a2222960791b60448201526064015b60405180910390fd5b60c08084015160408051610140810182526020808801516001600160a01b0390811683528389015181169183019190915260608089015182168385015260a0808a01518316918401919091526080808a01518316908401528682169083015260048054821695830195909552600554811660e0830152600654811661010083015260075481166101208301529151635d6d1fa360e01b81529190921692635d6d1fa39262000610928a920162000d81565b600060405180830381600087803b1580156200062b57600080fd5b505af115801562000640573d6000803e3d6000fd5b505050508260c001516001600160a01b03167f9376ee483c428b938c96990123ffefe7d47b059702b14e367c4d7a35582d1fc9846060015185600001518660400151876020015160405162000699949392919062000c84565b60405180910390a2505060c0015192915050565b620006b762000804565b620006c3600062000860565b565b620006cf62000804565b600180546001600160a01b03199081166001600160a01b038a811691909117909255600280548216898416179055600380548216888416179055600480548216878416179055600580548216868416179055600680548216858416179055600780549091169183169190911790556040517fc9d3947d22fa124aaec4c7e8c919f79016e2d7b48eee10568375d98b86460d1b90600090a150505050505050565b6200077962000804565b6001600160a01b038116620007e05760405162461bcd60e51b815260206004820152602660248201527f4f776e61626c653a206e6577206f776e657220697320746865207a65726f206160448201526564647265737360d01b606482015260840162000556565b620007eb8162000860565b50565b6000620007fd838330620008b0565b9392505050565b6000546001600160a01b03163314620006c35760405162461bcd60e51b815260206004820181905260248201527f4f776e61626c653a2063616c6c6572206973206e6f7420746865206f776e6572604482015260640162000556565b600080546001600160a01b038381166001600160a01b0319831681178455604051919092169283917f8be0079c531659141344cd1fd0a4f28419497f9722a3daafe3b4186f6b6457e09190a35050565b6000604051836040820152846020820152828152600b8101905060ff815360559020949350505050565b6107168062000e6e83390190565b610d74806200158483390190565b610ed680620022f883390190565b6001600160a01b03169052565b604051610140810167ffffffffffffffff811182821017156200094457634e487b7160e01b600052604160045260246000fd5b60405290565b803567ffffffffffffffff811681146200096357600080fd5b919050565b6001600160a01b0381168114620007eb57600080fd5b8035620009638162000968565b6000608082840312156200099e57600080fd5b6040516080810181811067ffffffffffffffff82111715620009d057634e487b7160e01b600052604160045260246000fd5b8060405250809150823581526020830135602082015260408301356040820152606083013560608201525092915050565b60006101a0828403121562000a1557600080fd5b62000a1f62000911565b62000a2a836200094a565b815262000a3a602084016200094a565b602082015262000a4d604084016200097e565b6040820152606083013560608201526080830135608082015262000a7460a084016200097e565b60a082015262000a8760c084016200097e565b60c082015260e083013560e082015261010062000aa68185016200094a565b9082015261012062000abb858583016200098b565b908201529392505050565b600080600080600080600060e0888a03121562000ae257600080fd5b873562000aef8162000968565b9650602088013562000b018162000968565b9550604088013562000b138162000968565b9450606088013562000b258162000968565b9350608088013562000b378162000968565b925060a088013562000b498162000968565b915060c088013562000b5b8162000968565b8091505092959891949750929550565b60006020828403121562000b7e57600080fd5b8135620007fd8162000968565b600060001982141562000bae57634e487b7160e01b600052601160045260246000fd5b5060010190565b6001600160a01b0384811682528316602082015260c0810162000bfc6040830184805182526020810151602083015260408101516040830152606081015160608301525050565b949350505050565b600080600080600060a0868803121562000c1d57600080fd5b855162000c2a8162000968565b602087015190955062000c3d8162000968565b604087015190945062000c508162000968565b606087015190935062000c638162000968565b608087015190925062000c768162000968565b809150509295509295909350565b6001600160a01b03948516815292841660208401529083166040830152909116606082015260800190565b62000cbc82825162000904565b602081015162000cd0602084018262000904565b50604081015162000ce5604084018262000904565b50606081015162000cfa606084018262000904565b50608081015162000d0f608084018262000904565b5060a081015162000d2460a084018262000904565b5060c081015162000d3960c084018262000904565b5060e081015162000d4e60e084018262000904565b506101008082015162000d648285018262000904565b50506101208082015162000d7b8285018262000904565b50505050565b825167ffffffffffffffff1681526102e08101602084015162000db0602084018267ffffffffffffffff169052565b50604084015162000dc5604084018262000904565b50606084015160608301526080840151608083015260a084015162000dee60a084018262000904565b5060c084015162000e0360c084018262000904565b5060e084015160e08301526101008085015162000e2b8285018267ffffffffffffffff169052565b5050610120848101518051848301526020810151610140850152604081015161016085015260608101516101808501525050620007fd6101a083018462000caf56fe608060405234801561001057600080fd5b5061001a3361001f565b61006f565b600080546001600160a01b038381166001600160a01b0319831681178455604051919092169283917f8be0079c531659141344cd1fd0a4f28419497f9722a3daafe3b4186f6b6457e09190a35050565b6106988061007e6000396000f3fe60806040526004361061006b5760003560e01c8063204e1c7a14610070578063715018a6146100a65780637eff275e146100bd5780638da5cb5b146100dd5780639623609d146100fb57806399a88ec41461010e578063f2fde38b1461012e578063f3b7dead1461014e575b600080fd5b34801561007c57600080fd5b5061009061008b366004610483565b61016e565b60405161009d91906104a7565b60405180910390f35b3480156100b257600080fd5b506100bb6101ff565b005b3480156100c957600080fd5b506100bb6100d83660046104bb565b610213565b3480156100e957600080fd5b506000546001600160a01b0316610090565b6100bb61010936600461050a565b61027d565b34801561011a57600080fd5b506100bb6101293660046104bb565b6102ec565b34801561013a57600080fd5b506100bb610149366004610483565b610320565b34801561015a57600080fd5b50610090610169366004610483565b61039e565b6000806000836001600160a01b031660405161019490635c60da1b60e01b815260040190565b600060405180830381855afa9150503d80600081146101cf576040519150601f19603f3d011682016040523d82523d6000602084013e6101d4565b606091505b5091509150816101e357600080fd5b808060200190518101906101f791906105e0565b949350505050565b6102076103c4565b610211600061041e565b565b61021b6103c4565b6040516308f2839760e41b81526001600160a01b03831690638f283970906102479084906004016104a7565b600060405180830381600087803b15801561026157600080fd5b505af1158015610275573d6000803e3d6000fd5b505050505050565b6102856103c4565b60405163278f794360e11b81526001600160a01b03841690634f1ef2869034906102b590869086906004016105fd565b6000604051808303818588803b1580156102ce57600080fd5b505af11580156102e2573d6000803e3d6000fd5b5050505050505050565b6102f46103c4565b604051631b2ce7f360e11b81526001600160a01b03831690633659cfe6906102479084906004016104a7565b6103286103c4565b6001600160a01b0381166103925760405162461bcd60e51b815260206004820152602660248201527f4f776e61626c653a206e6577206f776e657220697320746865207a65726f206160448201526564647265737360d01b60648201526084015b60405180910390fd5b61039b8161041e565b50565b6000806000836001600160a01b0316604051610194906303e1469160e61b815260040190565b6000546001600160a01b031633146102115760405162461bcd60e51b815260206004820181905260248201527f4f776e61626c653a2063616c6c6572206973206e6f7420746865206f776e65726044820152606401610389565b600080546001600160a01b038381166001600160a01b0319831681178455604051919092169283917f8be0079c531659141344cd1fd0a4f28419497f9722a3daafe3b4186f6b6457e09190a35050565b6001600160a01b038116811461039b57600080fd5b60006020828403121561049557600080fd5b81356104a08161046e565b9392505050565b6001600160a01b0391909116815260200190565b600080604083850312156104ce57600080fd5b82356104d98161046e565b915060208301356104e98161046e565b809150509250929050565b634e487b7160e01b600052604160045260246000fd5b60008060006060848603121561051f57600080fd5b833561052a8161046e565b9250602084013561053a8161046e565b9150604084013567ffffffffffffffff8082111561055757600080fd5b818601915086601f83011261056b57600080fd5b81358181111561057d5761057d6104f4565b604051601f8201601f19908116603f011681019083821181831017156105a5576105a56104f4565b816040528281528960208487010111156105be57600080fd5b8260208601602083013760006020848301015280955050505050509250925092565b6000602082840312156105f257600080fd5b81516104a08161046e565b60018060a01b038316815260006020604081840152835180604085015260005b818110156106395785810183015185820160600152820161061d565b8181111561064b576000606083870101525b50601f01601f19169290920160600194935050505056fea26469706673582212204d4e6bc905f84614f72e63be168567edeb9262000d4aca49e8814b9dfa07225f64736f6c63430008090033608060405234801561001057600080fd5b50610d54806100206000396000f3fe6080604052600436106100225760003560e01c80635d6d1fa31461003957610031565b366100315761002f610059565b005b61002f610059565b34801561004557600080fd5b5061002f61005436600461095e565b61006b565b610069610064610182565b61024b565b565b6000610075610274565b6001600160a01b031614801561009b57506000610090610295565b6001600160a01b0316145b80156100b7575060006100ac6102ab565b6001600160a01b0316145b1561017a576101768160c001516329ce5f2b60e01b84846040516024016100df929190610aff565b60408051601f198184030181529181526020820180516001600160e01b03166001600160e01b03199094169390931790925260e08501518683015192516001600160a01b039093166024840152909163189acdbd60e31b9060440160408051601f198184030181529190526020810180516001600160e01b03166001600160e01b03199093169290921790915260a08701516102c1565b5050565b610176610059565b600060043610156101c85760405162461bcd60e51b815260206004820152600b60248201526a4e4f5f46554e435f53494760a81b60448201526064015b60405180910390fd5b6000336101d3610274565b6001600160a01b031614156101ef576101ea610295565b6101f7565b6101f76102ab565b90506001600160a01b0381163b6102465760405162461bcd60e51b815260206004820152601360248201527215105491d15517d393d517d0d3d395149050d5606a1b60448201526064016101bf565b919050565b3660008037600080366000845af43d6000803e80801561026a573d6000f35b3d6000fd5b505050565b6000600080516020610c988339815191525b546001600160a01b0316919050565b6000600080516020610cb8833981519152610286565b6000600080516020610cff833981519152610286565b6102ec60017fb53127684a568b3173ae13b9f8a6016e243e63b6e8ee1178d6a717850b5d6104610be1565b600080516020610c988339815191521461030857610308610c06565b61033360017f360894a13ba1a3210667c828492db98dca3e2076cc3735a920a3ca505d382bbd610be1565b600080516020610cb88339815191521461034f5761034f610c06565b61037a60017f2b1dbce74324248c222f0ec2d5ed7bd323cfc425b336f0253c5ccfda7265546e610be1565b600080516020610cff8339815191521461039657610396610c06565b61039f816103be565b6103ab85856000610415565b6103b783836000610440565b5050505050565b7f7e644d79422f17c01e4894b5f4f588d331ebfa28653d42ae832dc59e38c9798f6103e7610274565b604080516001600160a01b03928316815291841660208301520160405180910390a161041281610449565b50565b61041e836104e0565b60008251118061042b5750805b1561026f5761043a8383610520565b50505050565b61041e8361054c565b6001600160a01b0381166104ae5760405162461bcd60e51b815260206004820152602660248201527f455243313936373a206e65772061646d696e20697320746865207a65726f206160448201526564647265737360d01b60648201526084016101bf565b80600080516020610c988339815191525b80546001600160a01b0319166001600160a01b039290921691909117905550565b6104e98161058c565b6040516001600160a01b038216907fbc7cd75a20ee27fd9adebab32041f755214dbc6bffa90cc0225b39da2e5c2d3b90600090a250565b60606105458383604051806060016040528060278152602001610cd86027913961060e565b9392505050565b61055581610686565b6040516001600160a01b038216907ff7eed2a7fabbf1bec8d55ed5e785cc76622376dde5df4ff15470551e030b813490600090a250565b6001600160a01b0381163b6105f95760405162461bcd60e51b815260206004820152602d60248201527f455243313936373a206e657720696d706c656d656e746174696f6e206973206e60448201526c1bdd08184818dbdb9d1c9858dd609a1b60648201526084016101bf565b80600080516020610cb88339815191526104bf565b6060600080856001600160a01b03168560405161062b9190610c48565b600060405180830381855af49150503d8060008114610666576040519150601f19603f3d011682016040523d82523d6000602084013e61066b565b606091505b509150915061067c86838387610712565b9695505050505050565b6001600160a01b0381163b6106fd5760405162461bcd60e51b815260206004820152603760248201527f455243313936373a206e6577207365636f6e6461727920696d706c656d656e74604482015276185d1a5bdb881a5cc81b9bdd08184818dbdb9d1c9858dd604a1b60648201526084016101bf565b80600080516020610cff8339815191526104bf565b6060831561077e578251610777576001600160a01b0385163b6107775760405162461bcd60e51b815260206004820152601d60248201527f416464726573733a2063616c6c20746f206e6f6e2d636f6e747261637400000060448201526064016101bf565b5081610788565b6107888383610790565b949350505050565b8151156107a05781518083602001fd5b8060405162461bcd60e51b81526004016101bf9190610c64565b604051610140810167ffffffffffffffff811182821017156107ec57634e487b7160e01b600052604160045260246000fd5b60405290565b803567ffffffffffffffff8116811461024657600080fd5b80356001600160a01b038116811461024657600080fd5b60006080828403121561083357600080fd5b6040516080810181811067ffffffffffffffff8211171561086457634e487b7160e01b600052604160045260246000fd5b8060405250809150823581526020830135602082015260408301356040820152606083013560608201525092915050565b600061014082840312156108a857600080fd5b6108b06107ba565b90506108bb8261080a565b81526108c96020830161080a565b60208201526108da6040830161080a565b60408201526108eb6060830161080a565b60608201526108fc6080830161080a565b608082015261090d60a0830161080a565b60a082015261091e60c0830161080a565b60c082015261092f60e0830161080a565b60e082015261010061094281840161080a565b9082015261012061095483820161080a565b9082015292915050565b6000808284036102e081121561097357600080fd5b6101a08082121561098357600080fd5b61098b6107ba565b9150610996856107f2565b82526109a4602086016107f2565b60208301526109b56040860161080a565b604083015260608501356060830152608085013560808301526109da60a0860161080a565b60a08301526109eb60c0860161080a565b60c083015260e085013560e0830152610100610a088187016107f2565b90830152610120610a1b87878301610821565b8184015250819350610a2f86828701610895565b925050509250929050565b6001600160a01b03169052565b610a52828251610a3a565b6020810151610a646020840182610a3a565b506040810151610a776040840182610a3a565b506060810151610a8a6060840182610a3a565b506080810151610a9d6080840182610a3a565b5060a0810151610ab060a0840182610a3a565b5060c0810151610ac360c0840182610a3a565b5060e0810151610ad660e0840182610a3a565b5061010080820151610aea82850182610a3a565b50506101208082015161043a82850182610a3a565b825167ffffffffffffffff1681526102e081016020840151610b2d602084018267ffffffffffffffff169052565b506040840151610b406040840182610a3a565b50606084015160608301526080840151608083015260a0840151610b6760a0840182610a3a565b5060c0840151610b7a60c0840182610a3a565b5060e084015160e083015261010080850151610ba18285018267ffffffffffffffff169052565b50506101208481015180518483015260208101516101408501526040810151610160850152606081015161018085015250506105456101a0830184610a47565b600082821015610c0157634e487b7160e01b600052601160045260246000fd5b500390565b634e487b7160e01b600052600160045260246000fd5b60005b83811015610c37578181015183820152602001610c1f565b8381111561043a5750506000910152565b60008251610c5a818460208701610c1c565b9190910192915050565b6020815260008251806020840152610c83816040850160208701610c1c565b601f01601f1916919091016040019291505056feb53127684a568b3173ae13b9f8a6016e243e63b6e8ee1178d6a717850b5d6103360894a13ba1a3210667c828492db98dca3e2076cc3735a920a3ca505d382bbc416464726573733a206c6f772d6c6576656c2064656c65676174652063616c6c206661696c65642b1dbce74324248c222f0ec2d5ed7bd323cfc425b336f0253c5ccfda7265546da26469706673582212203733635f842f5dbeb6ecd86b5fd21ba9d67054ee690121a022565a87970adb5064736f6c63430008090033608060405260405162000ed638038062000ed683398101604081905262000026916200049d565b828162000036828260006200004d565b50620000449050826200008a565b505050620005d0565b6200005883620000e5565b600082511180620000665750805b1562000085576200008383836200012760201b620001791760201c565b505b505050565b7f7e644d79422f17c01e4894b5f4f588d331ebfa28653d42ae832dc59e38c9798f620000b562000156565b604080516001600160a01b03928316815291841660208301520160405180910390a1620000e2816200018f565b50565b620000f08162000244565b6040516001600160a01b038216907fbc7cd75a20ee27fd9adebab32041f755214dbc6bffa90cc0225b39da2e5c2d3b90600090a250565b60606200014f838360405180606001604052806027815260200162000eaf60279139620002f8565b9392505050565b60006200018060008051602062000e8f83398151915260001b6200037760201b620001a51760201c565b546001600160a01b0316919050565b6001600160a01b038116620001fa5760405162461bcd60e51b815260206004820152602660248201527f455243313936373a206e65772061646d696e20697320746865207a65726f206160448201526564647265737360d01b60648201526084015b60405180910390fd5b806200022360008051602062000e8f83398151915260001b6200037760201b620001a51760201c565b80546001600160a01b0319166001600160a01b039290921691909117905550565b6200025a816200037a60201b620001a81760201c565b620002be5760405162461bcd60e51b815260206004820152602d60248201527f455243313936373a206e657720696d706c656d656e746174696f6e206973206e60448201526c1bdd08184818dbdb9d1c9858dd609a1b6064820152608401620001f1565b80620002237f360894a13ba1a3210667c828492db98dca3e2076cc3735a920a3ca505d382bbc60001b6200037760201b620001a51760201c565b6060600080856001600160a01b0316856040516200031791906200057d565b600060405180830381855af49150503d806000811462000354576040519150601f19603f3d011682016040523d82523d6000602084013e62000359565b606091505b5090925090506200036d8683838762000389565b9695505050505050565b90565b6001600160a01b03163b151590565b60608315620003fa578251620003f2576001600160a01b0385163b620003f25760405162461bcd60e51b815260206004820152601d60248201527f416464726573733a2063616c6c20746f206e6f6e2d636f6e74726163740000006044820152606401620001f1565b508162000406565b6200040683836200040e565b949350505050565b8151156200041f5781518083602001fd5b8060405162461bcd60e51b8152600401620001f191906200059b565b80516001600160a01b03811681146200045357600080fd5b919050565b634e487b7160e01b600052604160045260246000fd5b60005b838110156200048b57818101518382015260200162000471565b83811115620000835750506000910152565b600080600060608486031215620004b357600080fd5b620004be846200043b565b9250620004ce602085016200043b565b60408501519092506001600160401b0380821115620004ec57600080fd5b818601915086601f8301126200050157600080fd5b81518181111562000516576200051662000458565b604051601f8201601f19908116603f0116810190838211818310171562000541576200054162000458565b816040528281528960208487010111156200055b57600080fd5b6200056e8360208301602088016200046e565b80955050505050509250925092565b60008251620005918184602087016200046e565b9190910192915050565b6020815260008251806020840152620005bc8160408501602087016200046e565b601f01601f19169190910160400192915050565b6108af80620005e06000396000f3fe60806040523661001357610011610017565b005b6100115b61001f6101b7565b6001600160a01b0316336001600160a01b0316141561016f5760606001600160e01b031960003516631b2ce7f360e11b8114156100655761005e6101ea565b9150610167565b6001600160e01b0319811663278f794360e11b14156100865761005e610241565b6001600160e01b031981166308f2839760e41b14156100a75761005e610287565b6001600160e01b031981166303e1469160e61b14156100c85761005e6102b8565b6001600160e01b03198116635c60da1b60e01b14156100e95761005e6102f8565b60405162461bcd60e51b815260206004820152604260248201527f5472616e73706172656e745570677261646561626c6550726f78793a2061646d60448201527f696e2063616e6e6f742066616c6c6261636b20746f2070726f78792074617267606482015261195d60f21b608482015260a4015b60405180910390fd5b815160208301f35b61017761030c565b565b606061019e83836040518060600160405280602781526020016108536027913961031c565b9392505050565b90565b6001600160a01b03163b151590565b60007fb53127684a568b3173ae13b9f8a6016e243e63b6e8ee1178d6a717850b5d61035b546001600160a01b0316919050565b60606101f4610394565b6000610203366004818461069e565b81019061021091906106e4565b905061022d8160405180602001604052806000815250600061039f565b505060408051602081019091526000815290565b6060600080610253366004818461069e565b8101906102609190610715565b915091506102708282600161039f565b604051806020016040528060008152509250505090565b6060610291610394565b60006102a0366004818461069e565b8101906102ad91906106e4565b905061022d816103cb565b60606102c2610394565b60006102cc6101b7565b604080516001600160a01b03831660208201529192500160405160208183030381529060405291505090565b6060610302610394565b60006102cc610422565b610177610317610422565b610431565b6060600080856001600160a01b0316856040516103399190610803565b600060405180830381855af49150503d8060008114610374576040519150601f19603f3d011682016040523d82523d6000602084013e610379565b606091505b509150915061038a86838387610455565b9695505050505050565b341561017757600080fd5b6103a8836104d1565b6000825111806103b55750805b156103c6576103c48383610179565b505b505050565b7f7e644d79422f17c01e4894b5f4f588d331ebfa28653d42ae832dc59e38c9798f6103f46101b7565b604080516001600160a01b03928316815291841660208301520160405180910390a161041f81610511565b50565b600061042c6105ba565b905090565b3660008037600080366000845af43d6000803e808015610450573d6000f35b3d6000fd5b606083156104bf5782516104b85761046c856101a8565b6104b85760405162461bcd60e51b815260206004820152601d60248201527f416464726573733a2063616c6c20746f206e6f6e2d636f6e7472616374000000604482015260640161015e565b50816104c9565b6104c983836105e2565b949350505050565b6104da8161060c565b6040516001600160a01b038216907fbc7cd75a20ee27fd9adebab32041f755214dbc6bffa90cc0225b39da2e5c2d3b90600090a250565b6001600160a01b0381166105765760405162461bcd60e51b815260206004820152602660248201527f455243313936373a206e65772061646d696e20697320746865207a65726f206160448201526564647265737360d01b606482015260840161015e565b807fb53127684a568b3173ae13b9f8a6016e243e63b6e8ee1178d6a717850b5d61035b80546001600160a01b0319166001600160a01b039290921691909117905550565b60007f360894a13ba1a3210667c828492db98dca3e2076cc3735a920a3ca505d382bbc6101db565b8151156105f25781518083602001fd5b8060405162461bcd60e51b815260040161015e919061081f565b610615816101a8565b6106775760405162461bcd60e51b815260206004820152602d60248201527f455243313936373a206e657720696d706c656d656e746174696f6e206973206e60448201526c1bdd08184818dbdb9d1c9858dd609a1b606482015260840161015e565b807f360894a13ba1a3210667c828492db98dca3e2076cc3735a920a3ca505d382bbc610599565b600080858511156106ae57600080fd5b838611156106bb57600080fd5b5050820193919092039150565b80356001600160a01b03811681146106df57600080fd5b919050565b6000602082840312156106f657600080fd5b61019e826106c8565b634e487b7160e01b600052604160045260246000fd5b6000806040838503121561072857600080fd5b610731836106c8565b9150602083013567ffffffffffffffff8082111561074e57600080fd5b818501915085601f83011261076257600080fd5b813581811115610774576107746106ff565b604051601f8201601f19908116603f0116810190838211818310171561079c5761079c6106ff565b816040528281528860208487010111156107b557600080fd5b8260208601602083013760006020848301015280955050505050509250929050565b60005b838110156107f25781810151838201526020016107da565b838111156103c45750506000910152565b600082516108158184602087016107d7565b9190910192915050565b602081526000825180602084015261083e8160408501602087016107d7565b601f01601f1916919091016040019291505056fe416464726573733a206c6f772d6c6576656c2064656c65676174652063616c6c206661696c6564a2646970667358221220578a05165536371729159f79d56c4b7a621884f3b94d6cc2b7b5b29f29e0773164736f6c63430008090033b53127684a568b3173ae13b9f8a6016e243e63b6e8ee1178d6a717850b5d6103416464726573733a206c6f772d6c6576656c2064656c65676174652063616c6c206661696c6564a2646970667358221220f4a374d62bb7d0896f7ab5c8e0c52713127e2e78e96a4716bb7ef95b1fbe44f964736f6c63430008090033",
  "linkReferences": {},
  "deployedLinkReferences": {}
}