{
  "_format": "hh-sol-artifact-1",
  "contractName": "SequencerInbox",
  "sourceName": "src/bridge/SequencerInbox.sol",
  "abi": [
    {
      "inputs": [],
      "name": "AlreadyInit",
      "type": "error"
    },
    {
      "inputs": [
        {
          "internalType": "bytes32",
          "name": "",
          "type": "bytes32"
        }
      ],
      "name": "AlreadyValidDASKeyset",
      "type": "error"
    },
    {
      "inputs": [
        {
          "internalType": "uint256",
          "name": "stored",
          "type": "uint256"
        },
        {
          "internalType": "uint256",
          "name": "received",
          "type": "uint256"
        }
      ],
      "name": "BadSequencerNumber",
      "type": "error"
    },
    {
      "inputs": [],
      "name": "DataNotAuthenticated",
      "type": "error"
    },
    {
      "inputs": [
        {
          "internalType": "uint256",
          "name": "dataLength",
          "type": "uint256"
        },
        {
          "internalType": "uint256",
          "name": "maxDataLength",
          "type": "uint256"
        }
      ],
      "name": "DataTooLarge",
      "type": "error"
    },
    {
      "inputs": [],
      "name": "DelayedBackwards",
      "type": "error"
    },
    {
      "inputs": [],
      "name": "DelayedTooFar",
      "type": "error"
    },
    {
      "inputs": [],
      "name": "ForceIncludeBlockTooSoon",
      "type": "error"
    },
    {
      "inputs": [],
      "name": "ForceIncludeTimeTooSoon",
      "type": "error"
    },
    {
      "inputs": [],
      "name": "HadZeroInit",
      "type": "error"
    },
    {
      "inputs": [],
      "name": "IncorrectMessagePreimage",
      "type": "error"
    },
    {
      "inputs": [
        {
          "internalType": "bytes32",
          "name": "",
          "type": "bytes32"
        }
      ],
      "name": "NoSuchKeyset",
      "type": "error"
    },
    {
      "inputs": [],
      "name": "NotBatchPoster",
      "type": "error"
    },
    {
      "inputs": [],
      "name": "NotForked",
      "type": "error"
    },
    {
      "inputs": [],
      "name": "NotOrigin",
      "type": "error"
    },
    {
      "inputs": [
        {
          "internalType": "address",
          "name": "sender",
          "type": "address"
        },
        {
          "internalType": "address",
          "name": "owner",
          "type": "address"
        }
      ],
      "name": "NotOwner",
      "type": "error"
    },
    {
      "anonymous": false,
      "inputs": [
        {
          "indexed": true,
          "internalType": "uint256",
          "name": "messageNum",
          "type": "uint256"
        },
        {
          "indexed": false,
          "internalType": "bytes",
          "name": "data",
          "type": "bytes"
        }
      ],
      "name": "InboxMessageDelivered",
      "type": "event"
    },
    {
      "anonymous": false,
      "inputs": [
        {
          "indexed": true,
          "internalType": "uint256",
          "name": "messageNum",
          "type": "uint256"
        }
      ],
      "name": "InboxMessageDeliveredFromOrigin",
      "type": "event"
    },
    {
      "anonymous": false,
      "inputs": [
        {
          "indexed": true,
          "internalType": "bytes32",
          "name": "keysetHash",
          "type": "bytes32"
        }
      ],
      "name": "InvalidateKeyset",
      "type": "event"
    },
    {
      "anonymous": false,
      "inputs": [
        {
          "indexed": true,
          "internalType": "uint256",
          "name": "id",
          "type": "uint256"
        }
      ],
      "name": "OwnerFunctionCalled",
      "type": "event"
    },
    {
      "anonymous": false,
      "inputs": [
        {
          "indexed": true,
          "internalType": "uint256",
          "name": "batchSequenceNumber",
          "type": "uint256"
        },
        {
          "indexed": false,
          "internalType": "bytes",
          "name": "data",
          "type": "bytes"
        }
      ],
      "name": "SequencerBatchData",
      "type": "event"
    },
    {
      "anonymous": false,
      "inputs": [
        {
          "indexed": true,
          "internalType": "uint256",
          "name": "batchSequenceNumber",
          "type": "uint256"
        },
        {
          "indexed": true,
          "internalType": "bytes32",
          "name": "beforeAcc",
          "type": "bytes32"
        },
        {
          "indexed": true,
          "internalType": "bytes32",
          "name": "afterAcc",
          "type": "bytes32"
        },
        {
          "indexed": false,
          "internalType": "bytes32",
          "name": "delayedAcc",
          "type": "bytes32"
        },
        {
          "indexed": false,
          "internalType": "uint256",
          "name": "afterDelayedMessagesRead",
          "type": "uint256"
        },
        {
          "components": [
            {
              "internalType": "uint64",
              "name": "minTimestamp",
              "type": "uint64"
            },
            {
              "internalType": "uint64",
              "name": "maxTimestamp",
              "type": "uint64"
            },
            {
              "internalType": "uint64",
              "name": "minBlockNumber",
              "type": "uint64"
            },
            {
              "internalType": "uint64",
              "name": "maxBlockNumber",
              "type": "uint64"
            }
          ],
          "indexed": false,
          "internalType": "struct ISequencerInbox.TimeBounds",
          "name": "timeBounds",
          "type": "tuple"
        },
        {
          "indexed": false,
          "internalType": "enum ISequencerInbox.BatchDataLocation",
          "name": "dataLocation",
          "type": "uint8"
        }
      ],
      "name": "SequencerBatchDelivered",
      "type": "event"
    },
    {
      "anonymous": false,
      "inputs": [
        {
          "indexed": true,
          "internalType": "bytes32",
          "name": "keysetHash",
          "type": "bytes32"
        },
        {
          "indexed": false,
          "internalType": "bytes",
          "name": "keysetBytes",
          "type": "bytes"
        }
      ],
      "name": "SetValidKeyset",
      "type": "event"
    },
    {
      "inputs": [],
      "name": "DATA_AUTHENTICATED_FLAG",
      "outputs": [
        {
          "internalType": "bytes1",
          "name": "",
          "type": "bytes1"
        }
      ],
      "stateMutability": "view",
      "type": "function"
    },
    {
      "inputs": [],
      "name": "HEADER_LENGTH",
      "outputs": [
        {
          "internalType": "uint256",
          "name": "",
          "type": "uint256"
        }
      ],
      "stateMutability": "view",
      "type": "function"
    },
    {
      "inputs": [
        {
          "internalType": "uint256",
          "name": "sequenceNumber",
          "type": "uint256"
        },
        {
          "internalType": "bytes",
          "name": "data",
          "type": "bytes"
        },
        {
          "internalType": "uint256",
          "name": "afterDelayedMessagesRead",
          "type": "uint256"
        },
        {
          "internalType": "contract IGasRefunder",
          "name": "gasRefunder",
          "type": "address"
        },
        {
          "internalType": "uint256",
          "name": "prevMessageCount",
          "type": "uint256"
        },
        {
          "internalType": "uint256",
          "name": "newMessageCount",
          "type": "uint256"
        }
      ],
      "name": "addSequencerL2Batch",
      "outputs": [],
      "stateMutability": "nonpayable",
      "type": "function"
    },
    {
      "inputs": [
        {
          "internalType": "uint256",
          "name": "sequenceNumber",
          "type": "uint256"
        },
        {
          "internalType": "bytes",
          "name": "data",
          "type": "bytes"
        },
        {
          "internalType": "uint256",
          "name": "afterDelayedMessagesRead",
          "type": "uint256"
        },
        {
          "internalType": "contract IGasRefunder",
          "name": "gasRefunder",
          "type": "address"
        }
      ],
      "name": "addSequencerL2BatchFromOrigin",
      "outputs": [],
      "stateMutability": "nonpayable",
      "type": "function"
    },
    {
      "inputs": [
        {
          "internalType": "uint256",
          "name": "sequenceNumber",
          "type": "uint256"
        },
        {
          "internalType": "bytes",
          "name": "data",
          "type": "bytes"
        },
        {
          "internalType": "uint256",
          "name": "afterDelayedMessagesRead",
          "type": "uint256"
        },
        {
          "internalType": "contract IGasRefunder",
          "name": "gasRefunder",
          "type": "address"
        },
        {
          "internalType": "uint256",
          "name": "prevMessageCount",
          "type": "uint256"
        },
        {
          "internalType": "uint256",
          "name": "newMessageCount",
          "type": "uint256"
        }
      ],
      "name": "addSequencerL2BatchFromOrigin",
      "outputs": [],
      "stateMutability": "nonpayable",
      "type": "function"
    },
    {
      "inputs": [],
      "name": "batchCount",
      "outputs": [
        {
          "internalType": "uint256",
          "name": "",
          "type": "uint256"
        }
      ],
      "stateMutability": "view",
      "type": "function"
    },
    {
      "inputs": [],
      "name": "bridge",
      "outputs": [
        {
          "internalType": "contract IBridge",
          "name": "",
          "type": "address"
        }
      ],
      "stateMutability": "view",
      "type": "function"
    },
    {
      "inputs": [
        {
          "internalType": "bytes32",
          "name": "",
          "type": "bytes32"
        }
      ],
      "name": "dasKeySetInfo",
      "outputs": [
        {
          "internalType": "bool",
          "name": "isValidKeyset",
          "type": "bool"
        },
        {
          "internalType": "uint64",
          "name": "creationBlock",
          "type": "uint64"
        }
      ],
      "stateMutability": "view",
      "type": "function"
    },
    {
      "inputs": [
        {
          "internalType": "uint256",
          "name": "_totalDelayedMessagesRead",
          "type": "uint256"
        },
        {
          "internalType": "uint8",
          "name": "kind",
          "type": "uint8"
        },
        {
          "internalType": "uint64[2]",
          "name": "l1BlockAndTime",
          "type": "uint64[2]"
        },
        {
          "internalType": "uint256",
          "name": "baseFeeL1",
          "type": "uint256"
        },
        {
          "internalType": "address",
          "name": "sender",
          "type": "address"
        },
        {
          "internalType": "bytes32",
          "name": "messageDataHash",
          "type": "bytes32"
        }
      ],
      "name": "forceInclusion",
      "outputs": [],
      "stateMutability": "nonpayable",
      "type": "function"
    },
    {
      "inputs": [
        {
          "internalType": "bytes32",
          "name": "ksHash",
          "type": "bytes32"
        }
      ],
      "name": "getKeysetCreationBlock",
      "outputs": [
        {
          "internalType": "uint256",
          "name": "",
          "type": "uint256"
        }
      ],
      "stateMutability": "view",
      "type": "function"
    },
    {
      "inputs": [
        {
          "internalType": "uint256",
          "name": "index",
          "type": "uint256"
        }
      ],
      "name": "inboxAccs",
      "outputs": [
        {
          "internalType": "bytes32",
          "name": "",
          "type": "bytes32"
        }
      ],
      "stateMutability": "view",
      "type": "function"
    },
    {
      "inputs": [
        {
          "internalType": "contract IBridge",
          "name": "bridge_",
          "type": "address"
        },
        {
          "components": [
            {
              "internalType": "uint256",
              "name": "delayBlocks",
              "type": "uint256"
            },
            {
              "internalType": "uint256",
              "name": "futureBlocks",
              "type": "uint256"
            },
            {
              "internalType": "uint256",
              "name": "delaySeconds",
              "type": "uint256"
            },
            {
              "internalType": "uint256",
              "name": "futureSeconds",
              "type": "uint256"
            }
          ],
          "internalType": "struct ISequencerInbox.MaxTimeVariation",
          "name": "maxTimeVariation_",
          "type": "tuple"
        }
      ],
      "name": "initialize",
      "outputs": [],
      "stateMutability": "nonpayable",
      "type": "function"
    },
    {
      "inputs": [
        {
          "internalType": "bytes32",
          "name": "ksHash",
          "type": "bytes32"
        }
      ],
      "name": "invalidateKeysetHash",
      "outputs": [],
      "stateMutability": "nonpayable",
      "type": "function"
    },
    {
      "inputs": [
        {
          "internalType": "address",
          "name": "",
          "type": "address"
        }
      ],
      "name": "isBatchPoster",
      "outputs": [
        {
          "internalType": "bool",
          "name": "",
          "type": "bool"
        }
      ],
      "stateMutability": "view",
      "type": "function"
    },
    {
      "inputs": [
        {
          "internalType": "address",
          "name": "",
          "type": "address"
        }
      ],
      "name": "isSequencer",
      "outputs": [
        {
          "internalType": "bool",
          "name": "",
          "type": "bool"
        }
      ],
      "stateMutability": "view",
      "type": "function"
    },
    {
      "inputs": [
        {
          "internalType": "bytes32",
          "name": "ksHash",
          "type": "bytes32"
        }
      ],
      "name": "isValidKeysetHash",
      "outputs": [
        {
          "internalType": "bool",
          "name": "",
          "type": "bool"
        }
      ],
      "stateMutability": "view",
      "type": "function"
    },
    {
      "inputs": [],
      "name": "maxTimeVariation",
      "outputs": [
        {
          "internalType": "uint256",
          "name": "delayBlocks",
          "type": "uint256"
        },
        {
          "internalType": "uint256",
          "name": "futureBlocks",
          "type": "uint256"
        },
        {
          "internalType": "uint256",
          "name": "delaySeconds",
          "type": "uint256"
        },
        {
          "internalType": "uint256",
          "name": "futureSeconds",
          "type": "uint256"
        }
      ],
      "stateMutability": "view",
      "type": "function"
    },
    {
      "inputs": [],
      "name": "removeDelayAfterFork",
      "outputs": [],
      "stateMutability": "nonpayable",
      "type": "function"
    },
    {
      "inputs": [],
      "name": "rollup",
      "outputs": [
        {
          "internalType": "contract IOwnable",
          "name": "",
          "type": "address"
        }
      ],
      "stateMutability": "view",
      "type": "function"
    },
    {
      "inputs": [
        {
          "internalType": "address",
          "name": "addr",
          "type": "address"
        },
        {
          "internalType": "bool",
          "name": "isBatchPoster_",
          "type": "bool"
        }
      ],
      "name": "setIsBatchPoster",
      "outputs": [],
      "stateMutability": "nonpayable",
      "type": "function"
    },
    {
      "inputs": [
        {
          "internalType": "address",
          "name": "addr",
          "type": "address"
        },
        {
          "internalType": "bool",
          "name": "isSequencer_",
          "type": "bool"
        }
      ],
      "name": "setIsSequencer",
      "outputs": [],
      "stateMutability": "nonpayable",
      "type": "function"
    },
    {
      "inputs": [
        {
          "components": [
            {
              "internalType": "uint256",
              "name": "delayBlocks",
              "type": "uint256"
            },
            {
              "internalType": "uint256",
              "name": "futureBlocks",
              "type": "uint256"
            },
            {
              "internalType": "uint256",
              "name": "delaySeconds",
              "type": "uint256"
            },
            {
              "internalType": "uint256",
              "name": "futureSeconds",
              "type": "uint256"
            }
          ],
          "internalType": "struct ISequencerInbox.MaxTimeVariation",
          "name": "maxTimeVariation_",
          "type": "tuple"
        }
      ],
      "name": "setMaxTimeVariation",
      "outputs": [],
      "stateMutability": "nonpayable",
      "type": "function"
    },
    {
      "inputs": [
        {
          "internalType": "bytes",
          "name": "keysetBytes",
          "type": "bytes"
        }
      ],
      "name": "setValidKeyset",
      "outputs": [],
      "stateMutability": "nonpayable",
      "type": "function"
    },
    {
      "inputs": [],
      "name": "totalDelayedMessagesRead",
      "outputs": [
        {
          "internalType": "uint256",
          "name": "",
          "type": "uint256"
        }
      ],
      "stateMutability": "view",
      "type": "function"
    }
  ],
  "bytecode": "0x60c0604052306080524660a05234801561001857600080fd5b5060805160a0516124a961003e6000396000610ddb0152600061046501526124a96000f3fe608060405234801561001057600080fd5b50600436106101585760003560e01c806384420860116100c3578063d9dd67ab1161007c578063d9dd67ab14610334578063e0bc972914610347578063e5a358c81461035a578063e78cea921461037e578063ebea461d14610391578063f1981578146103c757600080fd5b806384420860146102b55780638f111f3c146102c857806396cc5c78146102db578063b31761f8146102e3578063cb23bcb5146102f6578063d1ce8da81461032157600080fd5b80636d46e987116101155780636d46e987146101ee5780636e7df3e7146102115780636f12b0c914610224578063715ea34b1461023757806371c3e6fe146102895780637fa3a40e146102ac57600080fd5b806306f130561461015d5780631637be48146101785780631f7a92b2146101ab5780631f956632146101c0578063258f0495146101d357806327957a49146101e6575b600080fd5b6101656103da565b6040519081526020015b60405180910390f35b61019b610186366004611cf0565b60009081526008602052604090205460ff1690565b604051901515815260200161016f565b6101be6101b9366004611d21565b61045a565b005b6101be6101ce366004611d70565b610612565b6101656101e1366004611cf0565b610718565b610165602881565b61019b6101fc366004611da9565b60096020526000908152604090205460ff1681565b6101be61021f366004611d70565b610781565b6101be610232366004611e15565b610887565b61026a610245366004611cf0565b60086020526000908152604090205460ff81169061010090046001600160401b031682565b6040805192151583526001600160401b0390911660208301520161016f565b61019b610297366004611da9565b60036020526000908152604090205460ff1681565b61016560005481565b6101be6102c3366004611cf0565b610a76565b6101be6102d6366004611e7f565b610bc9565b6101be610dd8565b6101be6102f1366004611efb565b610e4f565b600254610309906001600160a01b031681565b6040516001600160a01b03909116815260200161016f565b6101be61032f366004611f6e565b610f4f565b610165610342366004611cf0565b611197565b6101be610355366004611e7f565b61121a565b610365600160fe1b81565b6040516001600160f81b0319909116815260200161016f565b600154610309906001600160a01b031681565b6004546005546006546007546103a79392919084565b60408051948552602085019390935291830152606082015260800161016f565b6101be6103d5366004611faf565b61136f565b600154604080516221048360e21b815290516000926001600160a01b0316916284120c916004808301926020929190829003018186803b15801561041d57600080fd5b505afa158015610431573d6000803e3d6000fd5b505050506040513d601f19601f82011682018060405250810190610455919061201f565b905090565b306001600160a01b037f00000000000000000000000000000000000000000000000000000000000000001614156104ed5760405162461bcd60e51b815260206004820152602c60248201527f46756e6374696f6e206d7573742062652063616c6c6564207468726f7567682060448201526b19195b1959d85d1958d85b1b60a21b60648201526084015b60405180910390fd5b6001546001600160a01b03161561051757604051633bcd329760e21b815260040160405180910390fd5b6001600160a01b03821661053e57604051631ad0f74360e01b815260040160405180910390fd5b600180546001600160a01b0319166001600160a01b0384169081179091556040805163cb23bcb560e01b8152905163cb23bcb591600480820192602092909190829003018186803b15801561059257600080fd5b505afa1580156105a6573d6000803e3d6000fd5b505050506040513d601f19601f820116820180604052508101906105ca9190612038565b600280546001600160a01b0319166001600160a01b03929092169190911790558035600490815560208201356005556040820135600655606082013560075581905b50505050565b600260009054906101000a90046001600160a01b03166001600160a01b0316638da5cb5b6040518163ffffffff1660e01b815260040160206040518083038186803b15801561066057600080fd5b505afa158015610674573d6000803e3d6000fd5b505050506040513d601f19601f820116820180604052508101906106989190612038565b6001600160a01b0316336001600160a01b0316146106da57600254604051631194af8760e11b81526104e49133916001600160a01b0390911690600401612055565b6001600160a01b038216600090815260096020526040808220805460ff19168415151790555160049160008051602061245483398151915291a25050565b600081815260086020908152604080832081518083019092525460ff81161515825261010090046001600160401b03169181018290529061076e5760405162f20c5d60e01b8152600481018490526024016104e4565b602001516001600160401b031692915050565b600260009054906101000a90046001600160a01b03166001600160a01b0316638da5cb5b6040518163ffffffff1660e01b815260040160206040518083038186803b1580156107cf57600080fd5b505afa1580156107e3573d6000803e3d6000fd5b505050506040513d601f19601f820116820180604052508101906108079190612038565b6001600160a01b0316336001600160a01b03161461084957600254604051631194af8760e11b81526104e49133916001600160a01b0390911690600401612055565b6001600160a01b038216600090815260036020526040808220805460ff19168415151790555160019160008051602061245483398151915291a25050565b8060005a90503332146108ad5760405163feb3d07160e01b815260040160405180910390fd5b3360009081526003602052604090205460ff166108dd57604051632dd9fc9760e01b815260040160405180910390fd5b6000806108eb888888611752565b90925090506000808080610902868b8d84806118c5565b93509350935093508c84146109345760405163ac7411c960e01b815260048101859052602481018e90526044016104e4565b80838e600080516020612434833981519152856000548a600060405161095d949392919061206f565b60405180910390a4505050506001600160a01b038416159150610a6d905057366000602061098c83601f6120f9565b6109969190612111565b90506102006109a6600283612217565b6109b09190612111565b6109bb826006612226565b6109c591906120f9565b6109cf90846120f9565b92503332146109dd57600091505b836001600160a01b031663e3db8a49335a6109f89087612245565b856040518463ffffffff1660e01b8152600401610a179392919061225c565b602060405180830381600087803b158015610a3157600080fd5b505af1158015610a45573d6000803e3d6000fd5b505050506040513d601f19601f82011682018060405250810190610a69919061227d565b5050505b50505050505050565b600260009054906101000a90046001600160a01b03166001600160a01b0316638da5cb5b6040518163ffffffff1660e01b815260040160206040518083038186803b158015610ac457600080fd5b505afa158015610ad8573d6000803e3d6000fd5b505050506040513d601f19601f82011682018060405250810190610afc9190612038565b6001600160a01b0316336001600160a01b031614610b3e57600254604051631194af8760e11b81526104e49133916001600160a01b0390911690600401612055565b60008181526008602052604090205460ff16610b6f5760405162f20c5d60e01b8152600481018290526024016104e4565b600081815260086020526040808220805460ff191690555182917f5cb4218b272fd214168ac43e90fb4d05d6c36f0b17ffb4c2dd07c234d744eb2a91a260405160039060008051602061245483398151915290600090a250565b8260005a9050333214610bef5760405163feb3d07160e01b815260040160405180910390fd5b3360009081526003602052604090205460ff16610c1f57604051632dd9fc9760e01b815260040160405180910390fd5b600080610c2d8a8a8a611752565b90925090508a81838b8b8a8a6000808080610c4b89888a89896118c5565b93509350935093508a8414158015610c6557506000198b14155b15610c8d5760405163ac7411c960e01b815260048101859052602481018c90526044016104e4565b808385600080516020612434833981519152856000548f6000604051610cb6949392919061206f565b60405180910390a4505050506001600160a01b038b16159850610dcd975050505050505050573660006020610cec83601f6120f9565b610cf69190612111565b9050610200610d06600283612217565b610d109190612111565b610d1b826006612226565b610d2591906120f9565b610d2f90846120f9565b9250333214610d3d57600091505b836001600160a01b031663e3db8a49335a610d589087612245565b856040518463ffffffff1660e01b8152600401610d779392919061225c565b602060405180830381600087803b158015610d9157600080fd5b505af1158015610da5573d6000803e3d6000fd5b505050506040513d601f19601f82011682018060405250810190610dc9919061227d565b5050505b505050505050505050565b467f00000000000000000000000000000000000000000000000000000000000000001415610e1957604051635180dd8360e11b815260040160405180910390fd5b60408051608081018252600180825260208201819052918101829052606001819052600481905560058190556006819055600755565b600260009054906101000a90046001600160a01b03166001600160a01b0316638da5cb5b6040518163ffffffff1660e01b815260040160206040518083038186803b158015610e9d57600080fd5b505afa158015610eb1573d6000803e3d6000fd5b505050506040513d601f19601f82011682018060405250810190610ed59190612038565b6001600160a01b0316336001600160a01b031614610f1757600254604051631194af8760e11b81526104e49133916001600160a01b0390911690600401612055565b80516004556020810151600555604080820151600655606082015160075551600090600080516020612454833981519152908290a250565b600260009054906101000a90046001600160a01b03166001600160a01b0316638da5cb5b6040518163ffffffff1660e01b815260040160206040518083038186803b158015610f9d57600080fd5b505afa158015610fb1573d6000803e3d6000fd5b505050506040513d601f19601f82011682018060405250810190610fd59190612038565b6001600160a01b0316336001600160a01b03161461101757600254604051631194af8760e11b81526104e49133916001600160a01b0390911690600401612055565b6000828260405161102992919061229a565b604051908190038120607f60f91b6020830152602182015260410160408051601f1981840301815291905280516020909101209050600160ff1b81186201000083106110ad5760405162461bcd60e51b81526020600482015260136024820152726b657973657420697320746f6f206c6172676560681b60448201526064016104e4565b60008181526008602052604090205460ff16156110e057604051637d17eeed60e11b8152600481018290526024016104e4565b60408051808201825260018152436001600160401b0390811660208084019182526000868152600890915284902092518354915168ffffffffffffffffff1990921690151568ffffffffffffffff0019161761010091909216021790555181907fabca9b7986bc22ad0160eb0cb88ae75411eacfba4052af0b457a9335ef6557229061116f90879087906122aa565b60405180910390a260405160029060008051602061245483398151915290600090a250505050565b6001546040516316bf557960e01b8152600481018390526000916001600160a01b0316906316bf55799060240160206040518083038186803b1580156111dc57600080fd5b505afa1580156111f0573d6000803e3d6000fd5b505050506040513d601f19601f82011682018060405250810190611214919061201f565b92915050565b8260005a3360009081526003602052604090205490915060ff1615801561124c57506002546001600160a01b03163314155b1561126a57604051632dd9fc9760e01b815260040160405180910390fd5b6000806112788a8a8a611752565b909250905060008b82848b8a8a86808061129587878388886118c5565b929c5090945092509050888a148015906112b157506000198914155b156112d95760405163ac7411c960e01b8152600481018b9052602481018a90526044016104e4565b80838b600080516020612434833981519152856000548d6001604051611302949392919061206f565b60405180910390a4505050505050505050807ffe325ca1efe4c5c1062c981c3ee74b781debe4ea9440306a96d2a55759c66c208c8c6040516113459291906122aa565b60405180910390a25050506001600160a01b03821615610dcd573660006020610cec83601f6120f9565b600054861161139157604051633eb9f37d60e11b815260040160405180910390fd5b600061144186846113a560208901896122ef565b6113b560408a0160208b016122ef565b6113c060018d612245565b6040805160f89690961b6001600160f81b03191660208088019190915260609590951b6001600160601b031916602187015260c093841b6001600160c01b031990811660358801529290931b909116603d85015260458401526065830188905260858084018790528151808503909101815260a59093019052815191012090565b600454909150439061145660208801886122ef565b6001600160401b031661146991906120f9565b106114875760405163ad3515d960e01b815260040160405180910390fd5b600654429061149c60408801602089016122ef565b6001600160401b03166114af91906120f9565b106114cd5760405163c76d17e560e01b815260040160405180910390fd5b60006001881115611565576001546001600160a01b031663d5719dc26114f460028b612245565b6040518263ffffffff1660e01b815260040161151291815260200190565b60206040518083038186803b15801561152a57600080fd5b505afa15801561153e573d6000803e3d6000fd5b505050506040513d601f19601f82011682018060405250810190611562919061201f565b90505b60408051602080820184905281830185905282518083038401815260609092019092528051910120600180546001600160a01b03169063d5719dc2906115ab908c612245565b6040518263ffffffff1660e01b81526004016115c991815260200190565b60206040518083038186803b1580156115e157600080fd5b505afa1580156115f5573d6000803e3d6000fd5b505050506040513d601f19601f82011682018060405250810190611619919061201f565b14611637576040516313947fd760e01b815260040160405180910390fd5b6000806116438a611b62565b9150915060008a90506000600160009054906101000a90046001600160a01b03166001600160a01b0316635fca4a166040518163ffffffff1660e01b815260040160206040518083038186803b15801561169c57600080fd5b505afa1580156116b0573d6000803e3d6000fd5b505050506040513d601f19601f820116820180604052508101906116d4919061201f565b9050600080548d836116e691906120f9565b6116f09190612245565b90506000806000806117068988600089896118c5565b9350935093509350808385600080516020612434833981519152856000548d6002604051611737949392919061206f565b60405180910390a45050505050505050505050505050505050565b600061175c611cc9565b8484600061176b8260286120f9565b90506201cccc81111561179d57604051634634691b60e01b8152600481018290526201cccc60248201526044016104e4565b81158015906117d55750600160fe1b8084846000816117be576117be6122d9565b9050013560f81c60f81b166001600160f81b031916145b156117f357604051631f97007f60e01b815260040160405180910390fd5b60218210801590611821575082826000818110611812576118126122d9565b90910135600160ff1b16151590505b15611875576000611836602160018587612318565b61183f91612342565b60008181526008602052604090205490915060ff166118735760405162f20c5d60e01b8152600481018290526024016104e4565b505b60008061188188611b8e565b915091506000828b8b60405160200161189c9392919061238c565b60408051808303601f1901815291905280516020909101209b919a509098505050505050505050565b6000806000806000548810156118ee57604051633eb9f37d60e11b815260040160405180910390fd5b600160009054906101000a90046001600160a01b03166001600160a01b031663eca067ad6040518163ffffffff1660e01b815260040160206040518083038186803b15801561193c57600080fd5b505afa158015611950573d6000803e3d6000fd5b505050506040513d601f19601f82011682018060405250810190611974919061201f565b8811156119945760405163925f8bd360e01b815260040160405180910390fd5b60015460405163432cc52b60e11b8152600481018b9052602481018a905260448101889052606481018790526001600160a01b03909116906386598a5690608401608060405180830381600087803b1580156119ef57600080fd5b505af1158015611a03573d6000803e3d6000fd5b505050506040513d601f19601f82011682018060405250810190611a2791906123b4565b60008c9055929650909450925090508615611b56576040805142602082015233606081901b6001600160601b03191692820192909252605481018b90526074810186905248609482015260009060b40160408051808303601f190181529082905260015481516020830120637a88b10760e01b84526001600160a01b0386811660048601526024850191909152919350600092911690637a88b10790604401602060405180830381600087803b158015611ae057600080fd5b505af1158015611af4573d6000803e3d6000fd5b505050506040513d601f19601f82011682018060405250810190611b18919061201f565b9050807fff64905f73a67fb594e0f940a8075a860db489ad991e032f48c81123eb52d60b83604051611b4a91906123ea565b60405180910390a25050505b95509550955095915050565b6000611b6c611cc9565b600080611b7885611b8e565b8151602090920191909120969095509350505050565b6060611b98611cc9565b6000611ba2611c35565b90506000816000015182602001518360400151846060015188604051602001611c0a95949392919060c095861b6001600160c01b0319908116825294861b8516600882015292851b8416601084015290841b8316601883015290921b16602082015260280190565b60405160208183030381529060405290506028815114611c2c57611c2c61241d565b94909350915050565b611c3d611cc9565b611c45611cc9565b600654421115611c6857600654611c5c9042612245565b6001600160401b031681525b600754611c7590426120f9565b6001600160401b03166020820152600454431115611ca957600454611c9a9043612245565b6001600160401b031660408201525b600554611cb690436120f9565b6001600160401b03166060820152919050565b60408051608081018252600080825260208201819052918101829052606081019190915290565b600060208284031215611d0257600080fd5b5035919050565b6001600160a01b0381168114611d1e57600080fd5b50565b60008082840360a0811215611d3557600080fd5b8335611d4081611d09565b92506080601f1982011215611d5457600080fd5b506020830190509250929050565b8015158114611d1e57600080fd5b60008060408385031215611d8357600080fd5b8235611d8e81611d09565b91506020830135611d9e81611d62565b809150509250929050565b600060208284031215611dbb57600080fd5b8135611dc681611d09565b9392505050565b60008083601f840112611ddf57600080fd5b5081356001600160401b03811115611df657600080fd5b602083019150836020828501011115611e0e57600080fd5b9250929050565b600080600080600060808688031215611e2d57600080fd5b8535945060208601356001600160401b03811115611e4a57600080fd5b611e5688828901611dcd565b909550935050604086013591506060860135611e7181611d09565b809150509295509295909350565b600080600080600080600060c0888a031215611e9a57600080fd5b8735965060208801356001600160401b03811115611eb757600080fd5b611ec38a828b01611dcd565b909750955050604088013593506060880135611ede81611d09565b969995985093969295946080840135945060a09093013592915050565b600060808284031215611f0d57600080fd5b604051608081018181106001600160401b0382111715611f3d57634e487b7160e01b600052604160045260246000fd5b8060405250823581526020830135602082015260408301356040820152606083013560608201528091505092915050565b60008060208385031215611f8157600080fd5b82356001600160401b03811115611f9757600080fd5b611fa385828601611dcd565b90969095509350505050565b60008060008060008060e08789031215611fc857600080fd5b86359550602087013560ff81168114611fe057600080fd5b94506080870188811115611ff357600080fd5b60408801945035925060a087013561200a81611d09565b8092505060c087013590509295509295509295565b60006020828403121561203157600080fd5b5051919050565b60006020828403121561204a57600080fd5b8151611dc681611d09565b6001600160a01b0392831681529116602082015260400190565b600060e0820190508582528460208301526001600160401b038085511660408401528060208601511660608401528060408601511660808401528060608601511660a084015250600383106120d457634e487b7160e01b600052602160045260246000fd5b8260c083015295945050505050565b634e487b7160e01b600052601160045260246000fd5b6000821982111561210c5761210c6120e3565b500190565b60008261212e57634e487b7160e01b600052601260045260246000fd5b500490565b600181815b8085111561216e578160001904821115612154576121546120e3565b8085161561216157918102915b93841c9390800290612138565b509250929050565b60008261218557506001611214565b8161219257506000611214565b81600181146121a857600281146121b2576121ce565b6001915050611214565b60ff8411156121c3576121c36120e3565b50506001821b611214565b5060208310610133831016604e8410600b84101617156121f1575081810a611214565b6121fb8383612133565b806000190482111561220f5761220f6120e3565b029392505050565b6000611dc660ff841683612176565b6000816000190483118215151615612240576122406120e3565b500290565b600082821015612257576122576120e3565b500390565b6001600160a01b039390931683526020830191909152604082015260600190565b60006020828403121561228f57600080fd5b8151611dc681611d62565b8183823760009101908152919050565b60208152816020820152818360408301376000818301604090810191909152601f909201601f19160101919050565b634e487b7160e01b600052603260045260246000fd5b60006020828403121561230157600080fd5b81356001600160401b0381168114611dc657600080fd5b6000808585111561232857600080fd5b8386111561233557600080fd5b5050820193919092039150565b8035602083101561121457600019602084900360031b1b1692915050565b60005b8381101561237b578181015183820152602001612363565b8381111561060c5750506000910152565b6000845161239e818460208901612360565b8201838582376000930192835250909392505050565b600080600080608085870312156123ca57600080fd5b505082516020840151604085015160609095015191969095509092509050565b6020815260008251806020840152612409816040850160208701612360565b601f01601f19169190910160400192915050565b634e487b7160e01b600052600160045260246000fdfe7394f4a19a13c7b92b5bb71033245305946ef78452f7b4986ac1390b5df4ebd7ea8787f128d10b2cc0317b0c3960f9ad447f7f6c1ed189db1083ccffd20f456ea26469706673582212203cabff2b36480d0e8075bf8c62cb629625ae48973e42872e3509d94a4501351e64736f6c63430008090033",
  "linkReferences": {},
  "deployedLinkReferences": {}
}